{
  "_format": "hh-sol-artifact-1",
  "contractName": "Splitwise",
  "sourceName": "contracts/mycontract.sol",
  "abi": [
    {
      "inputs": [
        {
          "internalType": "address",
          "name": "creditor",
          "type": "address"
        },
        {
          "internalType": "uint32",
          "name": "amount",
          "type": "uint32"
        },
        {
          "internalType": "address[]",
          "name": "cycle_path",
          "type": "address[]"
        }
      ],
      "name": "add_IOU",
      "outputs": [],
      "stateMutability": "nonpayable",
      "type": "function"
    },
    {
      "inputs": [
        {
          "internalType": "address",
          "name": "",
          "type": "address"
        },
        {
          "internalType": "address",
          "name": "",
          "type": "address"
        }
      ],
      "name": "debts",
      "outputs": [
        {
          "internalType": "uint32",
          "name": "",
          "type": "uint32"
        }
      ],
      "stateMutability": "view",
      "type": "function"
    },
    {
      "inputs": [],
      "name": "getAllUsers",
      "outputs": [
        {
          "internalType": "address[]",
          "name": "",
          "type": "address[]"
        }
      ],
      "stateMutability": "view",
      "type": "function"
    },
    {
      "inputs": [
        {
          "internalType": "address",
          "name": "debtor",
          "type": "address"
        },
        {
          "internalType": "address",
          "name": "creditor",
          "type": "address"
        }
      ],
      "name": "lookup",
      "outputs": [
        {
          "internalType": "uint32",
          "name": "",
          "type": "uint32"
        }
      ],
      "stateMutability": "view",
      "type": "function"
    },
    {
      "inputs": [
        {
          "internalType": "uint256",
          "name": "",
          "type": "uint256"
        }
      ],
      "name": "userList",
      "outputs": [
        {
          "internalType": "address",
          "name": "",
          "type": "address"
        }
      ],
      "stateMutability": "view",
      "type": "function"
    },
    {
      "inputs": [
        {
          "internalType": "address",
          "name": "",
          "type": "address"
        }
      ],
      "name": "users",
      "outputs": [
        {
          "internalType": "bool",
          "name": "",
          "type": "bool"
        }
      ],
      "stateMutability": "view",
      "type": "function"
    }
  ],
  "bytecode": "0x608060405234801561001057600080fd5b5061182c806100206000396000f3fe608060405234801561001057600080fd5b50600436106100625760003560e01c80634ac1c33d14610067578063713584a6146100975780639f4216e8146100c7578063a87430ba146100f7578063dd033b8d14610127578063e2842d7914610143575b600080fd5b610081600480360381019061007c91906110ed565b610161565b60405161008e919061114c565b60405180910390f35b6100b160048036038101906100ac91906110ed565b610193565b6040516100be919061114c565b60405180910390f35b6100e160048036038101906100dc919061119d565b610229565b6040516100ee91906111d9565b60405180910390f35b610111600480360381019061010c91906111f4565b610268565b60405161011e919061123c565b60405180910390f35b610141600480360381019061013c91906112e8565b610288565b005b61014b610b3a565b604051610158919061141a565b60405180910390f35b60006020528160005260406000206020528060005260406000206000915091509054906101000a900463ffffffff1681565b60008060008473ffffffffffffffffffffffffffffffffffffffff1673ffffffffffffffffffffffffffffffffffffffff16815260200190815260200160002060008373ffffffffffffffffffffffffffffffffffffffff1673ffffffffffffffffffffffffffffffffffffffff16815260200190815260200160002060009054906101000a900463ffffffff16905092915050565b6002818154811061023957600080fd5b906000526020600020016000915054906101000a900473ffffffffffffffffffffffffffffffffffffffff1681565b60016020528060005260406000206000915054906101000a900460ff1681565b60003390508473ffffffffffffffffffffffffffffffffffffffff168173ffffffffffffffffffffffffffffffffffffffff16036102fb576040517f08c379a00000000000000000000000000000000000000000000000000000000081526004016102f2906114bf565b60405180910390fd5b600073ffffffffffffffffffffffffffffffffffffffff168573ffffffffffffffffffffffffffffffffffffffff160361036a576040517f08c379a000000000000000000000000000000000000000000000000000000000815260040161036190611551565b60405180910390fd5b61037381610bc8565b61037c85610bc8565b60008383905090506000810361044b57846000808473ffffffffffffffffffffffffffffffffffffffff1673ffffffffffffffffffffffffffffffffffffffff16815260200190815260200160002060008873ffffffffffffffffffffffffffffffffffffffff1673ffffffffffffffffffffffffffffffffffffffff16815260200190815260200160002060008282829054906101000a900463ffffffff1661042691906115a0565b92506101000a81548163ffffffff021916908363ffffffff1602179055505050610b34565b8573ffffffffffffffffffffffffffffffffffffffff1684846000818110610476576104756115d8565b5b905060200201602081019061048b91906111f4565b73ffffffffffffffffffffffffffffffffffffffff16146104e1576040517f08c379a00000000000000000000000000000000000000000000000000000000081526004016104d890611653565b60405180910390fd5b8173ffffffffffffffffffffffffffffffffffffffff1684846001846105079190611673565b818110610517576105166115d8565b5b905060200201602081019061052c91906111f4565b73ffffffffffffffffffffffffffffffffffffffff1614610582576040517f08c379a0000000000000000000000000000000000000000000000000000000008152600401610579906116f3565b60405180910390fd5b600085905060005b6001836105979190611673565b8110156107845760008060008888858181106105b6576105b56115d8565b5b90506020020160208101906105cb91906111f4565b73ffffffffffffffffffffffffffffffffffffffff1673ffffffffffffffffffffffffffffffffffffffff168152602001908152602001600020600088886001866106169190611713565b818110610626576106256115d8565b5b905060200201602081019061063b91906111f4565b73ffffffffffffffffffffffffffffffffffffffff1673ffffffffffffffffffffffffffffffffffffffff16815260200190815260200160002060009054906101000a900463ffffffff16905060008163ffffffff160361075857876000808773ffffffffffffffffffffffffffffffffffffffff1673ffffffffffffffffffffffffffffffffffffffff16815260200190815260200160002060008b73ffffffffffffffffffffffffffffffffffffffff1673ffffffffffffffffffffffffffffffffffffffff16815260200190815260200160002060008282829054906101000a900463ffffffff1661073091906115a0565b92506101000a81548163ffffffff021916908363ffffffff1602179055505050505050610b34565b8263ffffffff168163ffffffff161015610770578092505b50808061077c90611747565b91505061058a565b5060005b6001836107959190611673565b8110156109f55760008686838181106107b1576107b06115d8565b5b90506020020160208101906107c691906111f4565b9050600087876001856107d99190611713565b8181106107e9576107e86115d8565b5b90506020020160208101906107fe91906111f4565b9050836000808473ffffffffffffffffffffffffffffffffffffffff1673ffffffffffffffffffffffffffffffffffffffff16815260200190815260200160002060008373ffffffffffffffffffffffffffffffffffffffff1673ffffffffffffffffffffffffffffffffffffffff16815260200190815260200160002060008282829054906101000a900463ffffffff1661089a919061178f565b92506101000a81548163ffffffff021916908363ffffffff16021790555060008060008473ffffffffffffffffffffffffffffffffffffffff1673ffffffffffffffffffffffffffffffffffffffff16815260200190815260200160002060008373ffffffffffffffffffffffffffffffffffffffff1673ffffffffffffffffffffffffffffffffffffffff16815260200190815260200160002060009054906101000a900463ffffffff1663ffffffff16036109e0576000808373ffffffffffffffffffffffffffffffffffffffff1673ffffffffffffffffffffffffffffffffffffffff16815260200190815260200160002060008273ffffffffffffffffffffffffffffffffffffffff1673ffffffffffffffffffffffffffffffffffffffff16815260200190815260200160002060006101000a81549063ffffffff02191690555b505080806109ed90611747565b915050610788565b5060008187610a04919061178f565b905060008163ffffffff161115610ace57806000808673ffffffffffffffffffffffffffffffffffffffff1673ffffffffffffffffffffffffffffffffffffffff16815260200190815260200160002060008a73ffffffffffffffffffffffffffffffffffffffff1673ffffffffffffffffffffffffffffffffffffffff16815260200190815260200160002060008282829054906101000a900463ffffffff16610aaf91906115a0565b92506101000a81548163ffffffff021916908363ffffffff1602179055505b60005b83811015610b1c57610b09878783818110610aef57610aee6115d8565b5b9050602002016020810190610b0491906111f4565b610cd7565b8080610b1490611747565b915050610ad1565b50610b2684610cd7565b610b2f88610cd7565b505050505b50505050565b60606002805480602002602001604051908101604052809291908181526020018280548015610bbe57602002820191906000526020600020905b8160009054906101000a900473ffffffffffffffffffffffffffffffffffffffff1673ffffffffffffffffffffffffffffffffffffffff1681526020019060010190808311610b74575b5050505050905090565b600160008273ffffffffffffffffffffffffffffffffffffffff1673ffffffffffffffffffffffffffffffffffffffff16815260200190815260200160002060009054906101000a900460ff16610cd45760018060008373ffffffffffffffffffffffffffffffffffffffff1673ffffffffffffffffffffffffffffffffffffffff16815260200190815260200160002060006101000a81548160ff0219169083151502179055506002819080600181540180825580915050600190039060005260206000200160009091909190916101000a81548173ffffffffffffffffffffffffffffffffffffffff021916908373ffffffffffffffffffffffffffffffffffffffff1602179055505b50565b610ce081610ecd565b610eca576000600160008373ffffffffffffffffffffffffffffffffffffffff1673ffffffffffffffffffffffffffffffffffffffff16815260200190815260200160002060006101000a81548160ff02191690831515021790555060005b600280549050811015610ec8578173ffffffffffffffffffffffffffffffffffffffff1660028281548110610d7757610d766115d8565b5b9060005260206000200160009054906101000a900473ffffffffffffffffffffffffffffffffffffffff1673ffffffffffffffffffffffffffffffffffffffff1603610eb55760026001600280549050610dd19190611673565b81548110610de257610de16115d8565b5b9060005260206000200160009054906101000a900473ffffffffffffffffffffffffffffffffffffffff1660028281548110610e2157610e206115d8565b5b9060005260206000200160006101000a81548173ffffffffffffffffffffffffffffffffffffffff021916908373ffffffffffffffffffffffffffffffffffffffff1602179055506002805480610e7b57610e7a6117c7565b5b6001900381819060005260206000200160006101000a81549073ffffffffffffffffffffffffffffffffffffffff02191690559055610ec8565b8080610ec090611747565b915050610d3f565b505b50565b600080600090505b60028054905081101561107a57600060028281548110610ef857610ef76115d8565b5b9060005260206000200160009054906101000a900473ffffffffffffffffffffffffffffffffffffffff16905060008060008673ffffffffffffffffffffffffffffffffffffffff1673ffffffffffffffffffffffffffffffffffffffff16815260200190815260200160002060008373ffffffffffffffffffffffffffffffffffffffff1673ffffffffffffffffffffffffffffffffffffffff16815260200190815260200160002060009054906101000a900463ffffffff1663ffffffff161180611056575060008060008373ffffffffffffffffffffffffffffffffffffffff1673ffffffffffffffffffffffffffffffffffffffff16815260200190815260200160002060008673ffffffffffffffffffffffffffffffffffffffff1673ffffffffffffffffffffffffffffffffffffffff16815260200190815260200160002060009054906101000a900463ffffffff1663ffffffff16115b1561106657600192505050611080565b50808061107290611747565b915050610ed5565b50600090505b919050565b600080fd5b600080fd5b600073ffffffffffffffffffffffffffffffffffffffff82169050919050565b60006110ba8261108f565b9050919050565b6110ca816110af565b81146110d557600080fd5b50565b6000813590506110e7816110c1565b92915050565b6000806040838503121561110457611103611085565b5b6000611112858286016110d8565b9250506020611123858286016110d8565b9150509250929050565b600063ffffffff82169050919050565b6111468161112d565b82525050565b6000602082019050611161600083018461113d565b92915050565b6000819050919050565b61117a81611167565b811461118557600080fd5b50565b60008135905061119781611171565b92915050565b6000602082840312156111b3576111b2611085565b5b60006111c184828501611188565b91505092915050565b6111d3816110af565b82525050565b60006020820190506111ee60008301846111ca565b92915050565b60006020828403121561120a57611209611085565b5b6000611218848285016110d8565b91505092915050565b60008115159050919050565b61123681611221565b82525050565b6000602082019050611251600083018461122d565b92915050565b6112608161112d565b811461126b57600080fd5b50565b60008135905061127d81611257565b92915050565b600080fd5b600080fd5b600080fd5b60008083601f8401126112a8576112a7611283565b5b8235905067ffffffffffffffff8111156112c5576112c4611288565b5b6020830191508360208202830111156112e1576112e061128d565b5b9250929050565b6000806000806060858703121561130257611301611085565b5b6000611310878288016110d8565b94505060206113218782880161126e565b935050604085013567ffffffffffffffff8111156113425761134161108a565b5b61134e87828801611292565b925092505092959194509250565b600081519050919050565b600082825260208201905092915050565b6000819050602082019050919050565b611391816110af565b82525050565b60006113a38383611388565b60208301905092915050565b6000602082019050919050565b60006113c78261135c565b6113d18185611367565b93506113dc83611378565b8060005b8381101561140d5781516113f48882611397565b97506113ff836113af565b9250506001810190506113e0565b5085935050505092915050565b6000602082019050818103600083015261143481846113bc565b905092915050565b600082825260208201905092915050565b7f53656e6465722063616e6e6f74206265207468652073616d652061732063726560008201527f6469746f722e0000000000000000000000000000000000000000000000000000602082015250565b60006114a960268361143c565b91506114b48261144d565b604082019050919050565b600060208201905081810360008301526114d88161149c565b9050919050565b7f4372656469746f722063616e6e6f7420626520746865207a65726f206164647260008201527f6573732e00000000000000000000000000000000000000000000000000000000602082015250565b600061153b60248361143c565b9150611546826114df565b604082019050919050565b6000602082019050818103600083015261156a8161152e565b9050919050565b7f4e487b7100000000000000000000000000000000000000000000000000000000600052601160045260246000fd5b60006115ab8261112d565b91506115b68361112d565b9250828201905063ffffffff8111156115d2576115d1611571565b5b92915050565b7f4e487b7100000000000000000000000000000000000000000000000000000000600052603260045260246000fd5b7f4379636c65206d7573742073746172742077697468206372656469746f722e00600082015250565b600061163d601f8361143c565b915061164882611607565b602082019050919050565b6000602082019050818103600083015261166c81611630565b9050919050565b600061167e82611167565b915061168983611167565b92508282039050818111156116a1576116a0611571565b5b92915050565b7f4379636c65206d75737420656e64207769746820646562746f722e0000000000600082015250565b60006116dd601b8361143c565b91506116e8826116a7565b602082019050919050565b6000602082019050818103600083015261170c816116d0565b9050919050565b600061171e82611167565b915061172983611167565b925082820190508082111561174157611740611571565b5b92915050565b600061175282611167565b91507fffffffffffffffffffffffffffffffffffffffffffffffffffffffffffffffff820361178457611783611571565b5b600182019050919050565b600061179a8261112d565b91506117a58361112d565b9250828203905063ffffffff8111156117c1576117c0611571565b5b92915050565b7f4e487b7100000000000000000000000000000000000000000000000000000000600052603160045260246000fdfea26469706673582212200f712e0d74ddb447b6434c1b9037e65fb236ee698e8af4f74cf824a2f46663d764736f6c63430008110033",
  "linkReferences": {},
  "deployedLinkReferences": {}
}